{
  "contractName": "lottery",
  "abi": [
    {
      "inputs": [],
      "stateMutability": "nonpayable",
      "type": "constructor"
    },
    {
      "inputs": [],
      "name": "lotteryId",
      "outputs": [
        {
          "internalType": "uint256",
          "name": "",
          "type": "uint256"
        }
      ],
      "stateMutability": "view",
      "type": "function"
    },
    {
      "inputs": [],
      "name": "owner",
      "outputs": [
        {
          "internalType": "address",
          "name": "",
          "type": "address"
        }
      ],
      "stateMutability": "view",
      "type": "function"
    },
    {
      "inputs": [
        {
          "internalType": "uint256",
          "name": "",
          "type": "uint256"
        }
      ],
      "name": "players",
      "outputs": [
        {
          "internalType": "address payable",
          "name": "",
          "type": "address"
        }
      ],
      "stateMutability": "view",
      "type": "function"
    },
    {
      "inputs": [
        {
          "internalType": "uint256",
          "name": "",
          "type": "uint256"
        }
      ],
      "name": "winners",
      "outputs": [
        {
          "internalType": "address",
          "name": "",
          "type": "address"
        }
      ],
      "stateMutability": "view",
      "type": "function"
    },
    {
      "inputs": [],
      "name": "enter",
      "outputs": [],
      "stateMutability": "payable",
      "type": "function"
    },
    {
      "inputs": [],
      "name": "getplayers",
      "outputs": [
        {
          "internalType": "address payable[]",
          "name": "",
          "type": "address[]"
        }
      ],
      "stateMutability": "view",
      "type": "function"
    },
    {
      "inputs": [],
      "name": "getbalance",
      "outputs": [
        {
          "internalType": "uint256",
          "name": "",
          "type": "uint256"
        }
      ],
      "stateMutability": "view",
      "type": "function"
    },
    {
      "inputs": [],
      "name": "getlotteryId",
      "outputs": [
        {
          "internalType": "uint256",
          "name": "",
          "type": "uint256"
        }
      ],
      "stateMutability": "view",
      "type": "function"
    },
    {
      "inputs": [],
      "name": "getRandomNumber",
      "outputs": [
        {
          "internalType": "uint256",
          "name": "",
          "type": "uint256"
        }
      ],
      "stateMutability": "view",
      "type": "function"
    },
    {
      "inputs": [],
      "name": "pickWinner",
      "outputs": [],
      "stateMutability": "nonpayable",
      "type": "function"
    },
    {
      "inputs": [],
      "name": "getWinners",
      "outputs": [
        {
          "internalType": "address[]",
          "name": "",
          "type": "address[]"
        }
      ],
      "stateMutability": "view",
      "type": "function"
    }
  ],
  "bytecode": "0x608060405234801561000f575f80fd5b50335f806101000a81548173ffffffffffffffffffffffffffffffffffffffff021916908373ffffffffffffffffffffffffffffffffffffffff1602179055505f600381905550610c49806100635f395ff3fe60806040526004361061009b575f3560e01c8063ddb29cb211610063578063ddb29cb21461016f578063df15c37e14610199578063e580f47b146101c3578063e97dcb62146101ed578063ecb3db52146101f7578063f71d96cb146102215761009b565b80634d9b3d5d1461009f5780635d495aea146100c95780638da5cb5b146100df578063a2fb117514610109578063dbdff2c114610145575b5f80fd5b3480156100aa575f80fd5b506100b361025d565b6040516100c091906107a7565b60405180910390f35b3480156100d4575f80fd5b506100dd610264565b005b3480156100ea575f80fd5b506100f3610468565b60405161010091906107ff565b60405180910390f35b348015610114575f80fd5b5061012f600480360381019061012a9190610846565b61048b565b60405161013c91906107ff565b60405180910390f35b348015610150575f80fd5b506101596104c6565b60405161016691906107a7565b60405180910390f35b34801561017a575f80fd5b50610183610517565b60405161019091906107a7565b60405180910390f35b3480156101a4575f80fd5b506101ad610520565b6040516101ba9190610928565b60405180910390f35b3480156101ce575f80fd5b506101d76105ab565b6040516101e491906107a7565b60405180910390f35b6101f56105b1565b005b348015610202575f80fd5b5061020b610627565b6040516102189190610a10565b60405180910390f35b34801561022c575f80fd5b5061024760048036038101906102429190610846565b6106b2565b6040516102549190610a3f565b60405180910390f35b5f47905090565b5f8054906101000a900473ffffffffffffffffffffffffffffffffffffffff1673ffffffffffffffffffffffffffffffffffffffff163373ffffffffffffffffffffffffffffffffffffffff16146102ba575f80fd5b5f6001805490506102c96104c6565b6102d39190610a85565b9050600181815481106102e9576102e8610ab5565b5b905f5260205f20015f9054906101000a900473ffffffffffffffffffffffffffffffffffffffff1673ffffffffffffffffffffffffffffffffffffffff166108fc4790811502906040515f60405180830381858888f19350505050158015610353573d5f803e3d5ffd5b5060026001828154811061036a57610369610ab5565b5b905f5260205f20015f9054906101000a900473ffffffffffffffffffffffffffffffffffffffff16908060018154018082558091505060019003905f5260205f20015f9091909190916101000a81548173ffffffffffffffffffffffffffffffffffffffff021916908373ffffffffffffffffffffffffffffffffffffffff16021790555060035f81548092919061040190610b0f565b91905055505f67ffffffffffffffff8111156104205761041f610b56565b5b60405190808252806020026020018201604052801561044e5781602001602082028036833780820191505090505b50600190805190602001906104649291906106ed565b5050565b5f8054906101000a900473ffffffffffffffffffffffffffffffffffffffff1681565b6002818154811061049a575f80fd5b905f5260205f20015f915054906101000a900473ffffffffffffffffffffffffffffffffffffffff1681565b5f805f9054906101000a900473ffffffffffffffffffffffffffffffffffffffff16426040516020016104fa929190610be8565b604051602081830303815290604052805190602001205f1c905090565b5f600354905090565b606060028054806020026020016040519081016040528092919081815260200182805480156105a157602002820191905f5260205f20905b815f9054906101000a900473ffffffffffffffffffffffffffffffffffffffff1673ffffffffffffffffffffffffffffffffffffffff1681526020019060010190808311610558575b5050505050905090565b60035481565b67016345785d8a00003410156105c5575f80fd5b600133908060018154018082558091505060019003905f5260205f20015f9091909190916101000a81548173ffffffffffffffffffffffffffffffffffffffff021916908373ffffffffffffffffffffffffffffffffffffffff160217905550565b606060018054806020026020016040519081016040528092919081815260200182805480156106a857602002820191905f5260205f20905b815f9054906101000a900473ffffffffffffffffffffffffffffffffffffffff1673ffffffffffffffffffffffffffffffffffffffff168152602001906001019080831161065f575b5050505050905090565b600181815481106106c1575f80fd5b905f5260205f20015f915054906101000a900473ffffffffffffffffffffffffffffffffffffffff1681565b828054828255905f5260205f20908101928215610763579160200282015b82811115610762578251825f6101000a81548173ffffffffffffffffffffffffffffffffffffffff021916908373ffffffffffffffffffffffffffffffffffffffff1602179055509160200191906001019061070b565b5b5090506107709190610774565b5090565b5b8082111561078b575f815f905550600101610775565b5090565b5f819050919050565b6107a18161078f565b82525050565b5f6020820190506107ba5f830184610798565b92915050565b5f73ffffffffffffffffffffffffffffffffffffffff82169050919050565b5f6107e9826107c0565b9050919050565b6107f9816107df565b82525050565b5f6020820190506108125f8301846107f0565b92915050565b5f80fd5b6108258161078f565b811461082f575f80fd5b50565b5f813590506108408161081c565b92915050565b5f6020828403121561085b5761085a610818565b5b5f61086884828501610832565b91505092915050565b5f81519050919050565b5f82825260208201905092915050565b5f819050602082019050919050565b6108a3816107df565b82525050565b5f6108b4838361089a565b60208301905092915050565b5f602082019050919050565b5f6108d682610871565b6108e0818561087b565b93506108eb8361088b565b805f5b8381101561091b57815161090288826108a9565b975061090d836108c0565b9250506001810190506108ee565b5085935050505092915050565b5f6020820190508181035f83015261094081846108cc565b905092915050565b5f81519050919050565b5f82825260208201905092915050565b5f819050602082019050919050565b5f61097b826107c0565b9050919050565b61098b81610971565b82525050565b5f61099c8383610982565b60208301905092915050565b5f602082019050919050565b5f6109be82610948565b6109c88185610952565b93506109d383610962565b805f5b83811015610a035781516109ea8882610991565b97506109f5836109a8565b9250506001810190506109d6565b5085935050505092915050565b5f6020820190508181035f830152610a2881846109b4565b905092915050565b610a3981610971565b82525050565b5f602082019050610a525f830184610a30565b92915050565b7f4e487b71000000000000000000000000000000000000000000000000000000005f52601260045260245ffd5b5f610a8f8261078f565b9150610a9a8361078f565b925082610aaa57610aa9610a58565b5b828206905092915050565b7f4e487b71000000000000000000000000000000000000000000000000000000005f52603260045260245ffd5b7f4e487b71000000000000000000000000000000000000000000000000000000005f52601160045260245ffd5b5f610b198261078f565b91507fffffffffffffffffffffffffffffffffffffffffffffffffffffffffffffffff8203610b4b57610b4a610ae2565b5b600182019050919050565b7f4e487b71000000000000000000000000000000000000000000000000000000005f52604160045260245ffd5b5f8160601b9050919050565b5f610b9982610b83565b9050919050565b5f610baa82610b8f565b9050919050565b610bc2610bbd826107df565b610ba0565b82525050565b5f819050919050565b610be2610bdd8261078f565b610bc8565b82525050565b5f610bf38285610bb1565b601482019150610c038284610bd1565b602082019150819050939250505056fea264697066735822122012e4946b2988a8db473d3b3c0235b4bc4b84b84ae66294de5f550ef240dcc3ab64736f6c63430008150033",
  "immutableReferences": {},
  "source": "//SPDX-License-Identifier:MIT\r\npragma solidity ^0.8.15;\r\n\r\ncontract lottery{\r\n    address public owner;\r\n    address payable [] public players;\r\n    address [] public winners;\r\n    uint public lotteryId;\r\n\r\n    constructor(){\r\n    owner=msg.sender;\r\n    lotteryId=0;\r\n}\r\n   function enter() public payable{\r\n    require(msg.value >=0.1 ether);\r\n    players.push(payable(msg.sender));\r\n   }\r\n   function getplayers() public view returns(address payable[] memory){\r\n    return players;\r\n   }\r\n   function getbalance() public view returns(uint){\r\n    return address(this).balance;\r\n   }\r\n   function getlotteryId() public view returns(uint){\r\n    return lotteryId;\r\n   } \r\n   function getRandomNumber() public view returns(uint){\r\n    return uint(keccak256(abi.encodePacked(owner,block.timestamp)));\r\n   } \r\n   function pickWinner() public{\r\n    require(msg.sender == owner);\r\n    uint randomIndex = getRandomNumber() % players.length;\r\n    players[randomIndex].transfer(address(this).balance);\r\n    winners.push(players[randomIndex]);\r\n    lotteryId++;\r\n\r\n    players = new address payable[](0);\r\n   }\r\n   function getWinners() public view returns (address[] memory){\r\n    return winners;\r\n   }\r\n}",
  "sourcePath": "D:\\github\\lottery-dapp-youtube\\backend\\contracts\\Lottery.sol",
  "compiler": {
    "name": "solc",
    "version": "0.8.21+commit.d9974bed.Emscripten.clang"
  },
  "schemaVersion": "3.4.16",
  "updatedAt": "2023-12-20T10:13:36.316Z",
  "devdoc": {
    "kind": "dev",
    "methods": {},
    "version": 1
  },
  "userdoc": {
    "kind": "user",
    "methods": {},
    "version": 1
  }
}